:1000000019C028C027C026C025C024C023C022C0D4
:1000100021C020C01FC01EC01DC01CC01BC01AC0F4
:1000200019C018C017C016C015C014C013C012C024
:1000300011C010C011241FBECFEFD4E0DEBFCDBF72
:1000400011E0A0E0B1E001C01D92A230B107E1F7DC
:100050004BD09CC0D5CF806C80937C0080917A007F
:10006000806480937A0080917A0084FFFCCF809135
:100070007A00806180937A00209178003091790035
:10008000C90108958091000190910101019690931A
:100090000101809300010197D1F05D9886E0DBDFDC
:1000A0009C01220F331F280F391F2436310554F4C9
:1000B00080918800909189000196909389008093A7
:1000C000880006C0109289001092880001C05D9AD5
:1000D00080910001909101016DE070E030D090932B
:1000E00001018093000108951F938FEF84B915B823
:1000F00083EF8AB91BB883E085BD8BE886BD10927B
:10010000810082E08093800089E1809381008FEFFD
:100110009FE1909387008093860080EC80937C0021
:1001200087E880937A0080918000806880938000C7
:100130001BE8A89BFECFA89A16BDA4DFFACF97FBB9
:10014000092E07260AD077FD04D00CD006D0002057
:100150001AF4709561957F4F0895F6F79095819503
:100160009F4F0895AA1BBB1B51E107C0AA1FBB1FCD
:10017000A617B70710F0A61BB70B881F991F5A9533
:10018000A9F780959095BC01CD010895F894FFCF13
:00000001FF
